{
  "_format": "hh-sol-artifact-1",
  "contractName": "UserProfiles",
  "sourceName": "contracts/UserProfile.sol",
  "abi": [
    {
      "anonymous": false,
      "inputs": [
        {
          "indexed": true,
          "internalType": "address",
          "name": "userAddress",
          "type": "address"
        },
        {
          "indexed": false,
          "internalType": "string",
          "name": "username",
          "type": "string"
        },
        {
          "indexed": false,
          "internalType": "string",
          "name": "email",
          "type": "string"
        }
      ],
      "name": "ProfileRegistered",
      "type": "event"
    },
    {
      "inputs": [
        {
          "internalType": "address",
          "name": "userAddress",
          "type": "address"
        }
      ],
      "name": "getUserProfile",
      "outputs": [
        {
          "components": [
            {
              "internalType": "string",
              "name": "username",
              "type": "string"
            },
            {
              "internalType": "string",
              "name": "email",
              "type": "string"
            },
            {
              "internalType": "address",
              "name": "walletAddress",
              "type": "address"
            }
          ],
          "internalType": "struct UserProfiles.Profile",
          "name": "",
          "type": "tuple"
        }
      ],
      "stateMutability": "view",
      "type": "function"
    },
    {
      "inputs": [
        {
          "internalType": "string",
          "name": "newUsername",
          "type": "string"
        },
        {
          "internalType": "string",
          "name": "newEmail",
          "type": "string"
        }
      ],
      "name": "registerProfile",
      "outputs": [],
      "stateMutability": "nonpayable",
      "type": "function"
    }
  ],
  "bytecode": "0x608060405234801561001057600080fd5b506110a7806100206000396000f3fe608060405234801561001057600080fd5b50600436106100365760003560e01c80631b4886a31461003b578063987ee15614610057575b600080fd5b6100556004803603810190610050919061088f565b610087565b005b610071600480360381019061006c9190610965565b61045c565b60405161007e9190610a77565b60405180910390f35b60008251116100cb576040517f08c379a00000000000000000000000000000000000000000000000000000000081526004016100c290610af6565b60405180910390fd5b600081511161010f576040517f08c379a000000000000000000000000000000000000000000000000000000000815260040161010690610b62565b60405180910390fd5b600073ffffffffffffffffffffffffffffffffffffffff166001836040516101379190610bbe565b908152602001604051809103902060009054906101000a900473ffffffffffffffffffffffffffffffffffffffff1673ffffffffffffffffffffffffffffffffffffffff16146101bc576040517f08c379a00000000000000000000000000000000000000000000000000000000081526004016101b390610c21565b60405180910390fd5b600073ffffffffffffffffffffffffffffffffffffffff166002826040516101e49190610bbe565b908152602001604051809103902060009054906101000a900473ffffffffffffffffffffffffffffffffffffffff1673ffffffffffffffffffffffffffffffffffffffff1614610269576040517f08c379a000000000000000000000000000000000000000000000000000000000815260040161026090610c8d565b60405180910390fd5b60405180606001604052808381526020018281526020013373ffffffffffffffffffffffffffffffffffffffff168152506000803373ffffffffffffffffffffffffffffffffffffffff1673ffffffffffffffffffffffffffffffffffffffff16815260200190815260200160002060008201518160000190816102ed9190610ec3565b5060208201518160010190816103039190610ec3565b5060408201518160020160006101000a81548173ffffffffffffffffffffffffffffffffffffffff021916908373ffffffffffffffffffffffffffffffffffffffff1602179055509050503360018360405161035f9190610bbe565b908152602001604051809103902060006101000a81548173ffffffffffffffffffffffffffffffffffffffff021916908373ffffffffffffffffffffffffffffffffffffffff160217905550336002826040516103bc9190610bbe565b908152602001604051809103902060006101000a81548173ffffffffffffffffffffffffffffffffffffffff021916908373ffffffffffffffffffffffffffffffffffffffff1602179055503373ffffffffffffffffffffffffffffffffffffffff167ff38f9fff349de801f5f4d77082d8b194654441937b02b828d767ec613f2b4d4b8383604051610450929190610fce565b60405180910390a25050565b6104646106fe565b600073ffffffffffffffffffffffffffffffffffffffff166000808473ffffffffffffffffffffffffffffffffffffffff1673ffffffffffffffffffffffffffffffffffffffff16815260200190815260200160002060020160009054906101000a900473ffffffffffffffffffffffffffffffffffffffff1673ffffffffffffffffffffffffffffffffffffffff1603610534576040517f08c379a000000000000000000000000000000000000000000000000000000000815260040161052b90611051565b60405180910390fd5b6000808373ffffffffffffffffffffffffffffffffffffffff1673ffffffffffffffffffffffffffffffffffffffff16815260200190815260200160002060405180606001604052908160008201805461058d90610cdc565b80601f01602080910402602001604051908101604052809291908181526020018280546105b990610cdc565b80156106065780601f106105db57610100808354040283529160200191610606565b820191906000526020600020905b8154815290600101906020018083116105e957829003601f168201915b5050505050815260200160018201805461061f90610cdc565b80601f016020809104026020016040519081016040528092919081815260200182805461064b90610cdc565b80156106985780601f1061066d57610100808354040283529160200191610698565b820191906000526020600020905b81548152906001019060200180831161067b57829003601f168201915b505050505081526020016002820160009054906101000a900473ffffffffffffffffffffffffffffffffffffffff1673ffffffffffffffffffffffffffffffffffffffff1673ffffffffffffffffffffffffffffffffffffffff16815250509050919050565b60405180606001604052806060815260200160608152602001600073ffffffffffffffffffffffffffffffffffffffff1681525090565b6000604051905090565b600080fd5b600080fd5b600080fd5b600080fd5b6000601f19601f8301169050919050565b7f4e487b7100000000000000000000000000000000000000000000000000000000600052604160045260246000fd5b61079c82610753565b810181811067ffffffffffffffff821117156107bb576107ba610764565b5b80604052505050565b60006107ce610735565b90506107da8282610793565b919050565b600067ffffffffffffffff8211156107fa576107f9610764565b5b61080382610753565b9050602081019050919050565b82818337600083830152505050565b600061083261082d846107df565b6107c4565b90508281526020810184848401111561084e5761084d61074e565b5b610859848285610810565b509392505050565b600082601f83011261087657610875610749565b5b813561088684826020860161081f565b91505092915050565b600080604083850312156108a6576108a561073f565b5b600083013567ffffffffffffffff8111156108c4576108c3610744565b5b6108d085828601610861565b925050602083013567ffffffffffffffff8111156108f1576108f0610744565b5b6108fd85828601610861565b9150509250929050565b600073ffffffffffffffffffffffffffffffffffffffff82169050919050565b600061093282610907565b9050919050565b61094281610927565b811461094d57600080fd5b50565b60008135905061095f81610939565b92915050565b60006020828403121561097b5761097a61073f565b5b600061098984828501610950565b91505092915050565b600081519050919050565b600082825260208201905092915050565b60005b838110156109cc5780820151818401526020810190506109b1565b60008484015250505050565b60006109e382610992565b6109ed818561099d565b93506109fd8185602086016109ae565b610a0681610753565b840191505092915050565b610a1a81610927565b82525050565b60006060830160008301518482036000860152610a3d82826109d8565b91505060208301518482036020860152610a5782826109d8565b9150506040830151610a6c6040860182610a11565b508091505092915050565b60006020820190508181036000830152610a918184610a20565b905092915050565b600082825260208201905092915050565b7f557365726e616d652063616e6e6f7420626520656d7074790000000000000000600082015250565b6000610ae0601883610a99565b9150610aeb82610aaa565b602082019050919050565b60006020820190508181036000830152610b0f81610ad3565b9050919050565b7f456d61696c2063616e6e6f7420626520656d7074790000000000000000000000600082015250565b6000610b4c601583610a99565b9150610b5782610b16565b602082019050919050565b60006020820190508181036000830152610b7b81610b3f565b9050919050565b600081905092915050565b6000610b9882610992565b610ba28185610b82565b9350610bb28185602086016109ae565b80840191505092915050565b6000610bca8284610b8d565b915081905092915050565b7f557365726e616d6520616c72656164792074616b656e00000000000000000000600082015250565b6000610c0b601683610a99565b9150610c1682610bd5565b602082019050919050565b60006020820190508181036000830152610c3a81610bfe565b9050919050565b7f456d61696c20616c726561647920726567697374657265640000000000000000600082015250565b6000610c77601883610a99565b9150610c8282610c41565b602082019050919050565b60006020820190508181036000830152610ca681610c6a565b9050919050565b7f4e487b7100000000000000000000000000000000000000000000000000000000600052602260045260246000fd5b60006002820490506001821680610cf457607f821691505b602082108103610d0757610d06610cad565b5b50919050565b60008190508160005260206000209050919050565b60006020601f8301049050919050565b600082821b905092915050565b600060088302610d6f7fffffffffffffffffffffffffffffffffffffffffffffffffffffffffffffffff82610d32565b610d798683610d32565b95508019841693508086168417925050509392505050565b6000819050919050565b6000819050919050565b6000610dc0610dbb610db684610d91565b610d9b565b610d91565b9050919050565b6000819050919050565b610dda83610da5565b610dee610de682610dc7565b848454610d3f565b825550505050565b600090565b610e03610df6565b610e0e818484610dd1565b505050565b5b81811015610e3257610e27600082610dfb565b600181019050610e14565b5050565b601f821115610e7757610e4881610d0d565b610e5184610d22565b81016020851015610e60578190505b610e74610e6c85610d22565b830182610e13565b50505b505050565b600082821c905092915050565b6000610e9a60001984600802610e7c565b1980831691505092915050565b6000610eb38383610e89565b9150826002028217905092915050565b610ecc82610992565b67ffffffffffffffff811115610ee557610ee4610764565b5b610eef8254610cdc565b610efa828285610e36565b600060209050601f831160018114610f2d5760008415610f1b578287015190505b610f258582610ea7565b865550610f8d565b601f198416610f3b86610d0d565b60005b82811015610f6357848901518255600182019150602085019450602081019050610f3e565b86831015610f805784890151610f7c601f891682610e89565b8355505b6001600288020188555050505b505050505050565b6000610fa082610992565b610faa8185610a99565b9350610fba8185602086016109ae565b610fc381610753565b840191505092915050565b60006040820190508181036000830152610fe88185610f95565b90508181036020830152610ffc8184610f95565b90509392505050565b7f50726f66696c65206e6f7420666f756e64000000000000000000000000000000600082015250565b600061103b601183610a99565b915061104682611005565b602082019050919050565b6000602082019050818103600083015261106a8161102e565b905091905056fea264697066735822122018ab945f0552500e180abc3d4277c78b318a476648cd4737028ca96e51ce70f464736f6c63430008140033",
  "linkReferences": {},
  "deployedLinkReferences": {}
}