{
  "_format": "hh-sol-artifact-1",
  "contractName": "GymCoin",
  "sourceName": "contracts/GymCoin.sol",
  "abi": [
    {
      "inputs": [],
      "stateMutability": "nonpayable",
      "type": "constructor"
    },
    {
      "inputs": [
        {
          "internalType": "address",
          "name": "spender",
          "type": "address"
        },
        {
          "internalType": "uint256",
          "name": "allowance",
          "type": "uint256"
        },
        {
          "internalType": "uint256",
          "name": "needed",
          "type": "uint256"
        }
      ],
      "name": "ERC20InsufficientAllowance",
      "type": "error"
    },
    {
      "inputs": [
        {
          "internalType": "address",
          "name": "sender",
          "type": "address"
        },
        {
          "internalType": "uint256",
          "name": "balance",
          "type": "uint256"
        },
        {
          "internalType": "uint256",
          "name": "needed",
          "type": "uint256"
        }
      ],
      "name": "ERC20InsufficientBalance",
      "type": "error"
    },
    {
      "inputs": [
        {
          "internalType": "address",
          "name": "approver",
          "type": "address"
        }
      ],
      "name": "ERC20InvalidApprover",
      "type": "error"
    },
    {
      "inputs": [
        {
          "internalType": "address",
          "name": "receiver",
          "type": "address"
        }
      ],
      "name": "ERC20InvalidReceiver",
      "type": "error"
    },
    {
      "inputs": [
        {
          "internalType": "address",
          "name": "sender",
          "type": "address"
        }
      ],
      "name": "ERC20InvalidSender",
      "type": "error"
    },
    {
      "inputs": [
        {
          "internalType": "address",
          "name": "spender",
          "type": "address"
        }
      ],
      "name": "ERC20InvalidSpender",
      "type": "error"
    },
    {
      "inputs": [
        {
          "internalType": "address",
          "name": "owner",
          "type": "address"
        }
      ],
      "name": "OwnableInvalidOwner",
      "type": "error"
    },
    {
      "inputs": [
        {
          "internalType": "address",
          "name": "account",
          "type": "address"
        }
      ],
      "name": "OwnableUnauthorizedAccount",
      "type": "error"
    },
    {
      "anonymous": false,
      "inputs": [
        {
          "indexed": true,
          "internalType": "address",
          "name": "owner",
          "type": "address"
        },
        {
          "indexed": true,
          "internalType": "address",
          "name": "spender",
          "type": "address"
        },
        {
          "indexed": false,
          "internalType": "uint256",
          "name": "value",
          "type": "uint256"
        }
      ],
      "name": "Approval",
      "type": "event"
    },
    {
      "anonymous": false,
      "inputs": [
        {
          "indexed": true,
          "internalType": "address",
          "name": "buyer",
          "type": "address"
        },
        {
          "indexed": false,
          "internalType": "uint256",
          "name": "gcAmount",
          "type": "uint256"
        }
      ],
      "name": "BuyCoin",
      "type": "event"
    },
    {
      "anonymous": false,
      "inputs": [
        {
          "indexed": true,
          "internalType": "address",
          "name": "previousOwner",
          "type": "address"
        },
        {
          "indexed": true,
          "internalType": "address",
          "name": "newOwner",
          "type": "address"
        }
      ],
      "name": "OwnershipTransferred",
      "type": "event"
    },
    {
      "anonymous": false,
      "inputs": [
        {
          "indexed": true,
          "internalType": "address",
          "name": "seller",
          "type": "address"
        },
        {
          "indexed": false,
          "internalType": "uint256",
          "name": "gcAmount",
          "type": "uint256"
        }
      ],
      "name": "SellCoin",
      "type": "event"
    },
    {
      "anonymous": false,
      "inputs": [
        {
          "indexed": false,
          "internalType": "uint256",
          "name": "newBuyRate",
          "type": "uint256"
        },
        {
          "indexed": false,
          "internalType": "uint256",
          "name": "newSellRate",
          "type": "uint256"
        }
      ],
      "name": "SetRates",
      "type": "event"
    },
    {
      "anonymous": false,
      "inputs": [
        {
          "indexed": true,
          "internalType": "address",
          "name": "from",
          "type": "address"
        },
        {
          "indexed": true,
          "internalType": "address",
          "name": "to",
          "type": "address"
        },
        {
          "indexed": false,
          "internalType": "uint256",
          "name": "value",
          "type": "uint256"
        }
      ],
      "name": "Transfer",
      "type": "event"
    },
    {
      "anonymous": false,
      "inputs": [
        {
          "indexed": true,
          "internalType": "address",
          "name": "from",
          "type": "address"
        },
        {
          "indexed": true,
          "internalType": "address",
          "name": "to",
          "type": "address"
        },
        {
          "indexed": false,
          "internalType": "uint256",
          "name": "gcAmount",
          "type": "uint256"
        }
      ],
      "name": "TransferCoin",
      "type": "event"
    },
    {
      "inputs": [
        {
          "internalType": "address",
          "name": "owner",
          "type": "address"
        },
        {
          "internalType": "address",
          "name": "spender",
          "type": "address"
        }
      ],
      "name": "allowance",
      "outputs": [
        {
          "internalType": "uint256",
          "name": "",
          "type": "uint256"
        }
      ],
      "stateMutability": "view",
      "type": "function"
    },
    {
      "inputs": [
        {
          "internalType": "address",
          "name": "spender",
          "type": "address"
        },
        {
          "internalType": "uint256",
          "name": "value",
          "type": "uint256"
        }
      ],
      "name": "approve",
      "outputs": [
        {
          "internalType": "bool",
          "name": "",
          "type": "bool"
        }
      ],
      "stateMutability": "nonpayable",
      "type": "function"
    },
    {
      "inputs": [
        {
          "internalType": "address",
          "name": "account",
          "type": "address"
        }
      ],
      "name": "balanceOf",
      "outputs": [
        {
          "internalType": "uint256",
          "name": "",
          "type": "uint256"
        }
      ],
      "stateMutability": "view",
      "type": "function"
    },
    {
      "inputs": [
        {
          "internalType": "uint256",
          "name": "gcAmount",
          "type": "uint256"
        }
      ],
      "name": "buyCoin",
      "outputs": [],
      "stateMutability": "payable",
      "type": "function"
    },
    {
      "inputs": [],
      "name": "buyRate",
      "outputs": [
        {
          "internalType": "uint256",
          "name": "",
          "type": "uint256"
        }
      ],
      "stateMutability": "view",
      "type": "function"
    },
    {
      "inputs": [],
      "name": "decimals",
      "outputs": [
        {
          "internalType": "uint8",
          "name": "",
          "type": "uint8"
        }
      ],
      "stateMutability": "view",
      "type": "function"
    },
    {
      "inputs": [],
      "name": "name",
      "outputs": [
        {
          "internalType": "string",
          "name": "",
          "type": "string"
        }
      ],
      "stateMutability": "view",
      "type": "function"
    },
    {
      "inputs": [],
      "name": "owner",
      "outputs": [
        {
          "internalType": "address",
          "name": "",
          "type": "address"
        }
      ],
      "stateMutability": "view",
      "type": "function"
    },
    {
      "inputs": [],
      "name": "ownerAddress",
      "outputs": [
        {
          "internalType": "address",
          "name": "",
          "type": "address"
        }
      ],
      "stateMutability": "view",
      "type": "function"
    },
    {
      "inputs": [],
      "name": "renounceOwnership",
      "outputs": [],
      "stateMutability": "nonpayable",
      "type": "function"
    },
    {
      "inputs": [
        {
          "internalType": "uint256",
          "name": "gcAmount",
          "type": "uint256"
        }
      ],
      "name": "sellCoin",
      "outputs": [],
      "stateMutability": "nonpayable",
      "type": "function"
    },
    {
      "inputs": [],
      "name": "sellRate",
      "outputs": [
        {
          "internalType": "uint256",
          "name": "",
          "type": "uint256"
        }
      ],
      "stateMutability": "view",
      "type": "function"
    },
    {
      "inputs": [
        {
          "internalType": "uint256",
          "name": "newBuyRate",
          "type": "uint256"
        },
        {
          "internalType": "uint256",
          "name": "newSellRate",
          "type": "uint256"
        }
      ],
      "name": "setRates",
      "outputs": [],
      "stateMutability": "nonpayable",
      "type": "function"
    },
    {
      "inputs": [],
      "name": "symbol",
      "outputs": [
        {
          "internalType": "string",
          "name": "",
          "type": "string"
        }
      ],
      "stateMutability": "view",
      "type": "function"
    },
    {
      "inputs": [],
      "name": "totalSupply",
      "outputs": [
        {
          "internalType": "uint256",
          "name": "",
          "type": "uint256"
        }
      ],
      "stateMutability": "view",
      "type": "function"
    },
    {
      "inputs": [
        {
          "internalType": "address",
          "name": "destAddress",
          "type": "address"
        },
        {
          "internalType": "uint256",
          "name": "gcAmount",
          "type": "uint256"
        }
      ],
      "name": "transfer",
      "outputs": [
        {
          "internalType": "bool",
          "name": "",
          "type": "bool"
        }
      ],
      "stateMutability": "nonpayable",
      "type": "function"
    },
    {
      "inputs": [
        {
          "internalType": "address",
          "name": "from",
          "type": "address"
        },
        {
          "internalType": "address",
          "name": "to",
          "type": "address"
        },
        {
          "internalType": "uint256",
          "name": "value",
          "type": "uint256"
        }
      ],
      "name": "transferFrom",
      "outputs": [
        {
          "internalType": "bool",
          "name": "",
          "type": "bool"
        }
      ],
      "stateMutability": "nonpayable",
      "type": "function"
    },
    {
      "inputs": [
        {
          "internalType": "address",
          "name": "newOwner",
          "type": "address"
        }
      ],
      "name": "transferOwnership",
      "outputs": [],
      "stateMutability": "nonpayable",
      "type": "function"
    },
    {
      "stateMutability": "payable",
      "type": "receive"
    }
  ],
  "bytecode": "0x60806040523480156200001157600080fd5b5073083dbbca805195cabb062050ee1c883c9d7516f96040518060400160405280600781526020017f47796d436f696e000000000000000000000000000000000000000000000000008152506040518060400160405280600281526020017f47430000000000000000000000000000000000000000000000000000000000008152508160039081620000a49190620007b0565b508060049081620000b69190620007b0565b505050600073ffffffffffffffffffffffffffffffffffffffff168173ffffffffffffffffffffffffffffffffffffffff16036200012e5760006040517f1e4fbdf7000000000000000000000000000000000000000000000000000000008152600401620001259190620008dc565b60405180910390fd5b6200013f81620001aa60201b60201c565b506200019273083dbbca805195cabb062050ee1c883c9d7516f9620001696200027060201b60201c565b600a62000177919062000a89565b61271062000186919062000ada565b6200027960201b60201c565b61271060068190555061270f60078190555062000bcb565b6000600560009054906101000a900473ffffffffffffffffffffffffffffffffffffffff16905081600560006101000a81548173ffffffffffffffffffffffffffffffffffffffff021916908373ffffffffffffffffffffffffffffffffffffffff1602179055508173ffffffffffffffffffffffffffffffffffffffff168173ffffffffffffffffffffffffffffffffffffffff167f8be0079c531659141344cd1fd0a4f28419497f9722a3daafe3b4186f6b6457e060405160405180910390a35050565b60006012905090565b600073ffffffffffffffffffffffffffffffffffffffff168273ffffffffffffffffffffffffffffffffffffffff1603620002ee5760006040517fec442f05000000000000000000000000000000000000000000000000000000008152600401620002e59190620008dc565b60405180910390fd5b62000302600083836200030660201b60201c565b5050565b600073ffffffffffffffffffffffffffffffffffffffff168373ffffffffffffffffffffffffffffffffffffffff16036200035c5780600260008282546200034f919062000b25565b9250508190555062000432565b60008060008573ffffffffffffffffffffffffffffffffffffffff1673ffffffffffffffffffffffffffffffffffffffff16815260200190815260200160002054905081811015620003eb578381836040517fe450d38c000000000000000000000000000000000000000000000000000000008152600401620003e29392919062000b71565b60405180910390fd5b8181036000808673ffffffffffffffffffffffffffffffffffffffff1673ffffffffffffffffffffffffffffffffffffffff16815260200190815260200160002081905550505b600073ffffffffffffffffffffffffffffffffffffffff168273ffffffffffffffffffffffffffffffffffffffff16036200047d5780600260008282540392505081905550620004ca565b806000808473ffffffffffffffffffffffffffffffffffffffff1673ffffffffffffffffffffffffffffffffffffffff168152602001908152602001600020600082825401925050819055505b8173ffffffffffffffffffffffffffffffffffffffff168373ffffffffffffffffffffffffffffffffffffffff167fddf252ad1be2c89b69c2b068fc378daa952ba7f163c4a11628f55a4df523b3ef8360405162000529919062000bae565b60405180910390a3505050565b600081519050919050565b7f4e487b7100000000000000000000000000000000000000000000000000000000600052604160045260246000fd5b7f4e487b7100000000000000000000000000000000000000000000000000000000600052602260045260246000fd5b60006002820490506001821680620005b857607f821691505b602082108103620005ce57620005cd62000570565b5b50919050565b60008190508160005260206000209050919050565b60006020601f8301049050919050565b600082821b905092915050565b600060088302620006387fffffffffffffffffffffffffffffffffffffffffffffffffffffffffffffffff82620005f9565b620006448683620005f9565b95508019841693508086168417925050509392505050565b6000819050919050565b6000819050919050565b6000620006916200068b62000685846200065c565b62000666565b6200065c565b9050919050565b6000819050919050565b620006ad8362000670565b620006c5620006bc8262000698565b84845462000606565b825550505050565b600090565b620006dc620006cd565b620006e9818484620006a2565b505050565b5b81811015620007115762000705600082620006d2565b600181019050620006ef565b5050565b601f82111562000760576200072a81620005d4565b6200073584620005e9565b8101602085101562000745578190505b6200075d6200075485620005e9565b830182620006ee565b50505b505050565b600082821c905092915050565b6000620007856000198460080262000765565b1980831691505092915050565b6000620007a0838362000772565b9150826002028217905092915050565b620007bb8262000536565b67ffffffffffffffff811115620007d757620007d662000541565b5b620007e382546200059f565b620007f082828562000715565b600060209050601f83116001811462000828576000841562000813578287015190505b6200081f858262000792565b8655506200088f565b601f1984166200083886620005d4565b60005b8281101562000862578489015182556001820191506020850194506020810190506200083b565b868310156200088257848901516200087e601f89168262000772565b8355505b6001600288020188555050505b505050505050565b600073ffffffffffffffffffffffffffffffffffffffff82169050919050565b6000620008c48262000897565b9050919050565b620008d681620008b7565b82525050565b6000602082019050620008f36000830184620008cb565b92915050565b7f4e487b7100000000000000000000000000000000000000000000000000000000600052601160045260246000fd5b60008160011c9050919050565b6000808291508390505b600185111562000987578086048111156200095f576200095e620008f9565b5b60018516156200096f5780820291505b80810290506200097f8562000928565b94506200093f565b94509492505050565b600082620009a2576001905062000a75565b81620009b2576000905062000a75565b8160018114620009cb5760028114620009d65762000a0c565b600191505062000a75565b60ff841115620009eb57620009ea620008f9565b5b8360020a91508482111562000a055762000a04620008f9565b5b5062000a75565b5060208310610133831016604e8410600b841016171562000a465782820a90508381111562000a405762000a3f620008f9565b5b62000a75565b62000a55848484600162000935565b9250905081840481111562000a6f5762000a6e620008f9565b5b81810290505b9392505050565b600060ff82169050919050565b600062000a96826200065c565b915062000aa38362000a7c565b925062000ad27fffffffffffffffffffffffffffffffffffffffffffffffffffffffffffffffff848462000990565b905092915050565b600062000ae7826200065c565b915062000af4836200065c565b925082820262000b04816200065c565b9150828204841483151762000b1e5762000b1d620008f9565b5b5092915050565b600062000b32826200065c565b915062000b3f836200065c565b925082820190508082111562000b5a5762000b59620008f9565b5b92915050565b62000b6b816200065c565b82525050565b600060608201905062000b886000830186620008cb565b62000b97602083018562000b60565b62000ba6604083018462000b60565b949350505050565b600060208201905062000bc5600083018462000b60565b92915050565b611c648062000bdb6000396000f3fe60806040526004361061010d5760003560e01c80638779257411610095578063a9059cbb11610064578063a9059cbb14610359578063ac6af28014610396578063dd62ed3e146103bf578063f2fde38b146103fc578063fc37987b1461042557610114565b806387792574146102bc5780638da5cb5b146102d85780638f84aa091461030357806395d89b411461032e57610114565b80632c6cae36116100dc5780632c6cae36146101e9578063313ce567146102125780636217229b1461023d57806370a0823114610268578063715018a6146102a557610114565b806306fdde0314610119578063095ea7b31461014457806318160ddd1461018157806323b872dd146101ac57610114565b3661011457005b600080fd5b34801561012557600080fd5b5061012e610450565b60405161013b91906113ce565b60405180910390f35b34801561015057600080fd5b5061016b60048036038101906101669190611489565b6104e2565b60405161017891906114e4565b60405180910390f35b34801561018d57600080fd5b50610196610505565b6040516101a3919061150e565b60405180910390f35b3480156101b857600080fd5b506101d360048036038101906101ce9190611529565b61050f565b6040516101e091906114e4565b60405180910390f35b3480156101f557600080fd5b50610210600480360381019061020b919061157c565b61053e565b005b34801561021e57600080fd5b50610227610747565b60405161023491906115c5565b60405180910390f35b34801561024957600080fd5b50610252610750565b60405161025f919061150e565b60405180910390f35b34801561027457600080fd5b5061028f600480360381019061028a91906115e0565b610756565b60405161029c919061150e565b60405180910390f35b3480156102b157600080fd5b506102ba61079e565b005b6102d660048036038101906102d1919061157c565b6107b2565b005b3480156102e457600080fd5b506102ed610977565b6040516102fa919061161c565b60405180910390f35b34801561030f57600080fd5b506103186109a1565b604051610325919061161c565b60405180910390f35b34801561033a57600080fd5b506103436109b9565b60405161035091906113ce565b60405180910390f35b34801561036557600080fd5b50610380600480360381019061037b9190611489565b610a4b565b60405161038d91906114e4565b60405180910390f35b3480156103a257600080fd5b506103bd60048036038101906103b89190611637565b610ac9565b005b3480156103cb57600080fd5b506103e660048036038101906103e19190611677565b610b1c565b6040516103f3919061150e565b60405180910390f35b34801561040857600080fd5b50610423600480360381019061041e91906115e0565b610ba3565b005b34801561043157600080fd5b5061043a610c29565b604051610447919061150e565b60405180910390f35b60606003805461045f906116e6565b80601f016020809104026020016040519081016040528092919081815260200182805461048b906116e6565b80156104d85780601f106104ad576101008083540402835291602001916104d8565b820191906000526020600020905b8154815290600101906020018083116104bb57829003601f168201915b5050505050905090565b6000806104ed610c2f565b90506104fa818585610c37565b600191505092915050565b6000600254905090565b60008061051a610c2f565b9050610527858285610c49565b610532858585610cde565b60019150509392505050565b60006006548261054e9190611775565b905060008111610593576040517f08c379a000000000000000000000000000000000000000000000000000000000815260040161058a906117f2565b60405180910390fd5b600082116105d6576040517f08c379a00000000000000000000000000000000000000000000000000000000081526004016105cd90611884565b60405180910390fd5b816105e033610756565b1015610621576040517f08c379a000000000000000000000000000000000000000000000000000000000815260040161061890611916565b60405180910390fd5b8073083dbbca805195cabb062050ee1c883c9d7516f973ffffffffffffffffffffffffffffffffffffffff1631101561068f576040517f08c379a000000000000000000000000000000000000000000000000000000000815260040161068690611982565b60405180910390fd5b6106ae3373083dbbca805195cabb062050ee1c883c9d7516f984610cde565b3373ffffffffffffffffffffffffffffffffffffffff166108fc829081150290604051600060405180830381858888f193505050501580156106f4573d6000803e3d6000fd5b503373ffffffffffffffffffffffffffffffffffffffff167f2853c5b35f958675fd8600d675db5379cd793799550903b7850dc2562e098b798360405161073b919061150e565b60405180910390a25050565b60006012905090565b60075481565b60008060008373ffffffffffffffffffffffffffffffffffffffff1673ffffffffffffffffffffffffffffffffffffffff168152602001908152602001600020549050919050565b6107a6610dd2565b6107b06000610e59565b565b6000600754826107c29190611775565b905060003411610807576040517f08c379a00000000000000000000000000000000000000000000000000000000081526004016107fe906117f2565b60405180910390fd5b6000821161084a576040517f08c379a000000000000000000000000000000000000000000000000000000000815260040161084190611a14565b60405180910390fd5b8034101561088d576040517f08c379a000000000000000000000000000000000000000000000000000000000815260040161088490611aa6565b60405180910390fd5b816108ab73083dbbca805195cabb062050ee1c883c9d7516f9610756565b10156108ec576040517f08c379a00000000000000000000000000000000000000000000000000000000081526004016108e390611b38565b60405180910390fd5b61091873083dbbca805195cabb062050ee1c883c9d7516f933612710856109139190611b58565b610cde565b3373ffffffffffffffffffffffffffffffffffffffff167f768d94152de8151279688877fe49c0f11e4f7c78099d00b9c3b41b2409704e916127108461095e9190611b58565b60405161096b919061150e565b60405180910390a25050565b6000600560009054906101000a900473ffffffffffffffffffffffffffffffffffffffff16905090565b73083dbbca805195cabb062050ee1c883c9d7516f981565b6060600480546109c8906116e6565b80601f01602080910402602001604051908101604052809291908181526020018280546109f4906116e6565b8015610a415780601f10610a1657610100808354040283529160200191610a41565b820191906000526020600020905b815481529060010190602001808311610a2457829003601f168201915b5050505050905090565b600080610a588484610f1f565b90508373ffffffffffffffffffffffffffffffffffffffff163373ffffffffffffffffffffffffffffffffffffffff167fcd08573a62d4c56a47042e83efa834ec2f5ee43c9fa9d3e1c089d49eb8c7d50f85604051610ab7919061150e565b60405180910390a38091505092915050565b610ad1610dd2565b80600781905550816006819055507f43abda41e7975fc65795be1b59318ab34e5bfc3072a1dff0904fbb0a13dd9b5c8282604051610b10929190611b9a565b60405180910390a15050565b6000600160008473ffffffffffffffffffffffffffffffffffffffff1673ffffffffffffffffffffffffffffffffffffffff16815260200190815260200160002060008373ffffffffffffffffffffffffffffffffffffffff1673ffffffffffffffffffffffffffffffffffffffff16815260200190815260200160002054905092915050565b610bab610dd2565b600073ffffffffffffffffffffffffffffffffffffffff168173ffffffffffffffffffffffffffffffffffffffff1603610c1d5760006040517f1e4fbdf7000000000000000000000000000000000000000000000000000000008152600401610c14919061161c565b60405180910390fd5b610c2681610e59565b50565b60065481565b600033905090565b610c448383836001610f42565b505050565b6000610c558484610b1c565b90507fffffffffffffffffffffffffffffffffffffffffffffffffffffffffffffffff811015610cd85781811015610cc8578281836040517ffb8f41b2000000000000000000000000000000000000000000000000000000008152600401610cbf93929190611bc3565b60405180910390fd5b610cd784848484036000610f42565b5b50505050565b600073ffffffffffffffffffffffffffffffffffffffff168373ffffffffffffffffffffffffffffffffffffffff1603610d505760006040517f96c6fd1e000000000000000000000000000000000000000000000000000000008152600401610d47919061161c565b60405180910390fd5b600073ffffffffffffffffffffffffffffffffffffffff168273ffffffffffffffffffffffffffffffffffffffff1603610dc25760006040517fec442f05000000000000000000000000000000000000000000000000000000008152600401610db9919061161c565b60405180910390fd5b610dcd838383611119565b505050565b610dda610c2f565b73ffffffffffffffffffffffffffffffffffffffff16610df8610977565b73ffffffffffffffffffffffffffffffffffffffff1614610e5757610e1b610c2f565b6040517f118cdaa7000000000000000000000000000000000000000000000000000000008152600401610e4e919061161c565b60405180910390fd5b565b6000600560009054906101000a900473ffffffffffffffffffffffffffffffffffffffff16905081600560006101000a81548173ffffffffffffffffffffffffffffffffffffffff021916908373ffffffffffffffffffffffffffffffffffffffff1602179055508173ffffffffffffffffffffffffffffffffffffffff168173ffffffffffffffffffffffffffffffffffffffff167f8be0079c531659141344cd1fd0a4f28419497f9722a3daafe3b4186f6b6457e060405160405180910390a35050565b600080610f2a610c2f565b9050610f37818585610cde565b600191505092915050565b600073ffffffffffffffffffffffffffffffffffffffff168473ffffffffffffffffffffffffffffffffffffffff1603610fb45760006040517fe602df05000000000000000000000000000000000000000000000000000000008152600401610fab919061161c565b60405180910390fd5b600073ffffffffffffffffffffffffffffffffffffffff168373ffffffffffffffffffffffffffffffffffffffff16036110265760006040517f94280d6200000000000000000000000000000000000000000000000000000000815260040161101d919061161c565b60405180910390fd5b81600160008673ffffffffffffffffffffffffffffffffffffffff1673ffffffffffffffffffffffffffffffffffffffff16815260200190815260200160002060008573ffffffffffffffffffffffffffffffffffffffff1673ffffffffffffffffffffffffffffffffffffffff168152602001908152602001600020819055508015611113578273ffffffffffffffffffffffffffffffffffffffff168473ffffffffffffffffffffffffffffffffffffffff167f8c5be1e5ebec7d5bd14f71427d1e84f3dd0314c0f7b2291e5b200ac8c7c3b9258460405161110a919061150e565b60405180910390a35b50505050565b600073ffffffffffffffffffffffffffffffffffffffff168373ffffffffffffffffffffffffffffffffffffffff160361116b57806002600082825461115f9190611bfa565b9250508190555061123e565b60008060008573ffffffffffffffffffffffffffffffffffffffff1673ffffffffffffffffffffffffffffffffffffffff168152602001908152602001600020549050818110156111f7578381836040517fe450d38c0000000000000000000000000000000000000000000000000000000081526004016111ee93929190611bc3565b60405180910390fd5b8181036000808673ffffffffffffffffffffffffffffffffffffffff1673ffffffffffffffffffffffffffffffffffffffff16815260200190815260200160002081905550505b600073ffffffffffffffffffffffffffffffffffffffff168273ffffffffffffffffffffffffffffffffffffffff160361128757806002600082825403925050819055506112d4565b806000808473ffffffffffffffffffffffffffffffffffffffff1673ffffffffffffffffffffffffffffffffffffffff168152602001908152602001600020600082825401925050819055505b8173ffffffffffffffffffffffffffffffffffffffff168373ffffffffffffffffffffffffffffffffffffffff167fddf252ad1be2c89b69c2b068fc378daa952ba7f163c4a11628f55a4df523b3ef83604051611331919061150e565b60405180910390a3505050565b600081519050919050565b600082825260208201905092915050565b60005b8381101561137857808201518184015260208101905061135d565b60008484015250505050565b6000601f19601f8301169050919050565b60006113a08261133e565b6113aa8185611349565b93506113ba81856020860161135a565b6113c381611384565b840191505092915050565b600060208201905081810360008301526113e88184611395565b905092915050565b600080fd5b600073ffffffffffffffffffffffffffffffffffffffff82169050919050565b6000611420826113f5565b9050919050565b61143081611415565b811461143b57600080fd5b50565b60008135905061144d81611427565b92915050565b6000819050919050565b61146681611453565b811461147157600080fd5b50565b6000813590506114838161145d565b92915050565b600080604083850312156114a05761149f6113f0565b5b60006114ae8582860161143e565b92505060206114bf85828601611474565b9150509250929050565b60008115159050919050565b6114de816114c9565b82525050565b60006020820190506114f960008301846114d5565b92915050565b61150881611453565b82525050565b600060208201905061152360008301846114ff565b92915050565b600080600060608486031215611542576115416113f0565b5b60006115508682870161143e565b93505060206115618682870161143e565b925050604061157286828701611474565b9150509250925092565b600060208284031215611592576115916113f0565b5b60006115a084828501611474565b91505092915050565b600060ff82169050919050565b6115bf816115a9565b82525050565b60006020820190506115da60008301846115b6565b92915050565b6000602082840312156115f6576115f56113f0565b5b60006116048482850161143e565b91505092915050565b61161681611415565b82525050565b6000602082019050611631600083018461160d565b92915050565b6000806040838503121561164e5761164d6113f0565b5b600061165c85828601611474565b925050602061166d85828601611474565b9150509250929050565b6000806040838503121561168e5761168d6113f0565b5b600061169c8582860161143e565b92505060206116ad8582860161143e565b9150509250929050565b7f4e487b7100000000000000000000000000000000000000000000000000000000600052602260045260246000fd5b600060028204905060018216806116fe57607f821691505b602082108103611711576117106116b7565b5b50919050565b7f4e487b7100000000000000000000000000000000000000000000000000000000600052601260045260246000fd5b7f4e487b7100000000000000000000000000000000000000000000000000000000600052601160045260246000fd5b600061178082611453565b915061178b83611453565b92508261179b5761179a611717565b5b828204905092915050565b7f455448206d757374206265206d6f7265207468616e2030000000000000000000600082015250565b60006117dc601783611349565b91506117e7826117a6565b602082019050919050565b6000602082019050818103600083015261180b816117cf565b9050919050565b7f596f75206e65656420746f2068617665206d6f7265207468616e20302047796d60008201527f436f696e20746f2073656c6c0000000000000000000000000000000000000000602082015250565b600061186e602c83611349565b915061187982611812565b604082019050919050565b6000602082019050818103600083015261189d81611861565b9050919050565b7f596f75206e65656420746f2068617665206d6f72652047796d436f696e20746f60008201527f2073656c6c000000000000000000000000000000000000000000000000000000602082015250565b6000611900602583611349565b915061190b826118a4565b604082019050919050565b6000602082019050818103600083015261192f816118f3565b9050919050565b7f4e6f7420656e6f7567682045544820696e20636f6e7472616374000000000000600082015250565b600061196c601a83611349565b915061197782611936565b602082019050919050565b6000602082019050818103600083015261199b8161195f565b9050919050565b7f596f75206e65656420746f20627579206d6f7265207468616e20302047796d4360008201527f6f696e0000000000000000000000000000000000000000000000000000000000602082015250565b60006119fe602383611349565b9150611a09826119a2565b604082019050919050565b60006020820190508181036000830152611a2d816119f1565b9050919050565b7f45544820616d6f756e742063616e6e6f74206265206c657373207468616e207460008201527f68652047796d436f696e20616d6f756e74000000000000000000000000000000602082015250565b6000611a90603183611349565b9150611a9b82611a34565b604082019050919050565b60006020820190508181036000830152611abf81611a83565b9050919050565b7f4e6f7420656e6f7567682047796d436f696e20696e2074686520636f6e74726160008201527f6374000000000000000000000000000000000000000000000000000000000000602082015250565b6000611b22602283611349565b9150611b2d82611ac6565b604082019050919050565b60006020820190508181036000830152611b5181611b15565b9050919050565b6000611b6382611453565b9150611b6e83611453565b9250828202611b7c81611453565b91508282048414831517611b9357611b92611746565b5b5092915050565b6000604082019050611baf60008301856114ff565b611bbc60208301846114ff565b9392505050565b6000606082019050611bd8600083018661160d565b611be560208301856114ff565b611bf260408301846114ff565b949350505050565b6000611c0582611453565b9150611c1083611453565b9250828201905080821115611c2857611c27611746565b5b9291505056fea2646970667358221220c8063924576a3328568729d752b1064a7e90e8a081c2902e44b39de6a39b1d0364736f6c63430008140033",
  "linkReferences": {},
  "deployedLinkReferences": {}
}